:020000040000fa
:080000000002040000000000f2
:020000040000fa
:04000800c80200002a
:020000040000fa
:04000c00c802000026
:020000040000fa
:04001000c802000022
:020000040000fa
:04001400c80200001e
:020000040000fa
:04001800c80200001a
:020000040000fa
:04001c00c802000016
:020000040000fa
:04002000c802000012
:020000040000fa
:04002400c80200000e
:020000040000fa
:04002800c80200000a
:020000040000fa
:04002c00c802000006
:020000040000fa
:04003000c802000002
:020000040000fa
:04003400c8020000fe
:020000040000fa
:04003800c8020000fa
:020000040000fa
:04003c00c8020000f6
:020000040000fa
:04004000c8020000f2
:020000040000fa
:04004400c8020000ee
:020000040000fa
:04004800c8020000ea
:020000040000fa
:04004c00c8020000e6
:020000040000fa
:04005000c8020000e2
:020000040000fa
:04005400c8020000de
:020000040000fa
:04005800c8020000da
:020000040000fa
:04005c00c8020000d6
:020000040000fa
:04006000c8020000d2
:020000040000fa
:04006400c8020000ce
:020000040000fa
:04006800c8020000ca
:020000040000fa
:04006c00c8020000c6
:020000040000fa
:04007000c8020000c2
:020000040000fa
:04007400c8020000be
:020000040000fa
:04007800c8020000ba
:020000040000fa
:04007c00c8020000b6
:020000040000fa
:04008000c8020000b2
:020000040000fa
:04008400c8020000ae
:020000040000fa
:04008800c8020000aa
:020000040000fa
:04008c00c8020000a6
:020000040000fa
:04009000c8020000a2
:020000040000fa
:04009400c80200009e
:020000040000fa
:04009800c80200009a
:020000040000fa
:04009c00c802000096
:020000040000fa
:0400a000c802000092
:020000040000fa
:0400a400c80200008e
:020000040000fa
:0400a800c80200008a
:020000040000fa
:0400ac00c802000086
:020000040000fa
:0400b000c802000082
:020000040000fa
:0400b400c80200007e
:020000040000fa
:0400b800c80200007a
:020000040000fa
:0400bc00c802000076
:020000040000fa
:0400c000c802000072
:020000040000fa
:0400c400c80200006e
:020000040000fa
:0400c800c80200006a
:020000040000fa
:0400cc00c802000066
:020000040000fa
:0400d000c802000062
:020000040000fa
:0400d400c80200005e
:020000040000fa
:0400d800c80200005a
:020000040000fa
:0400dc00c802000056
:020000040000fa
:0400e000c802000052
:020000040000fa
:0400e400c80200004e
:020000040000fa
:0400e800c80200004a
:020000040000fa
:0400ec00c802000046
:020000040000fa
:0400f000c802000042
:020000040000fa
:0400f400c80200003e
:020000040000fa
:0400f800c80200003a
:020000040000fa
:0400fc00c802000036
:020000040000fa
:04010000c802000031
:020000040000fa
:04010400c80200002d
:020000040000fa
:04010800c802000029
:020000040000fa
:04010c00c802000025
:020000040000fa
:04011000c802000021
:020000040000fa
:04011400c80200001d
:020000040000fa
:04011800c802000019
:020000040000fa
:04011c00c802000015
:020000040000fa
:04012000c802000011
:020000040000fa
:04012400c80200000d
:020000040000fa
:04012800c802000009
:020000040000fa
:04012c00c802000005
:020000040000fa
:04013000c802000001
:020000040000fa
:04013400c8020000fd
:020000040000fa
:04013800c8020000f9
:020000040000fa
:04013c00c8020000f5
:020000040000fa
:04014000c8020000f1
:020000040000fa
:04014400c8020000ed
:020000040000fa
:04014800c8020000e9
:020000040000fa
:04014c00c8020000e5
:020000040000fa
:04015000c8020000e1
:020000040000fa
:04015400c8020000dd
:020000040000fa
:04015800c8020000d9
:020000040000fa
:04015c00c8020000d5
:020000040000fa
:04016000c8020000d1
:020000040000fa
:04016400c8020000cd
:020000040000fa
:04016800c8020000c9
:020000040000fa
:04016c00c8020000c5
:020000040000fa
:04017000c8020000c1
:020000040000fa
:04017400c8020000bd
:020000040000fa
:04017800c8020000b9
:020000040000fa
:04017c00c8020000b5
:020000040000fa
:04018000c8020000b1
:020000040000fa
:04018400c8020000ad
:020000040000fa
:04018800c8020000a9
:020000040000fa
:04018c00c8020000a5
:020000040000fa
:04019000c8020000a1
:020000040000fa
:04019400c80200009d
:020000040000fa
:04019800c802000099
:020000040000fa
:04019c00c802000095
:020000040000fa
:04020800c802000028
:020000040000fa
:04020c00c802000024
:020000040000fa
:04021000c802000020
:020000040000fa
:04021400c80200001c
:020000040000fa
:04021800c802000018
:020000040000fa
:04021c00c802000014
:020000040000fa
:04022000c802000010
:020000040000fa
:04022400c80200000c
:020000040000fa
:04022800c802000008
:020000040000fa
:04022c00c802000004
:020000040000fa
:04023000c802000000
:020000040000fa
:04023400c8020000fc
:020000040000fa
:04023800c8020000f8
:020000040000fa
:04023c00c8020000f4
:020000040000fa
:04024000c8020000f0
:020000040000fa
:04024400c8020000ec
:020000040000fa
:04024800c8020000e8
:020000040000fa
:04024c00c8020000e4
:020000040000fa
:04025000c8020000e0
:020000040000fa
:04025400c8020000dc
:020000040000fa
:04025800c8020000d8
:020000040000fa
:04025c00c8020000d4
:020000040000fa
:04026000c8020000d0
:020000040000fa
:04026400c8020000cc
:020000040000fa
:04026800c8020000c8
:020000040000fa
:04026c00c8020000c4
:020000040000fa
:04027000c8020000c0
:020000040000fa
:04027400c8020000bc
:020000040000fa
:04027800c8020000b8
:020000040000fa
:04027c00c8020000b4
:020000040000fa
:04028000c8020000b0
:020000040000fa
:04028400c8020000ac
:020000040000fa
:04028800c8020000a8
:020000040000fa
:04028c00c8020000a4
:020000040000fa
:04029000c8020000a0
:020000040000fa
:04029400c80200009c
:020000040000fa
:04029800c802000098
:020000040000fa
:04029c00c802000094
:020000040000fa
:0402a000c802000090
:020000040000fa
:0402a400c80200008c
:020000040000fa
:0402a800c802000088
:020000040000fa
:0402ac00c802000084
:020000040000fa
:0402b000c802000080
:020000040000fa
:0402b400c80200007c
:020000040000fa
:0402b800c802000078
:020000040000fa
:0402bc00c802000074
:020000040000fa
:0402c000c802000070
:020000040000fa
:0402c400c80200006c
:020000040000fa
:0402c800c802000068
:020000040000fa
:0402cc00c802000064
:020000040000fa
:0402d000c802000060
:020000040000fa
:0402d400c80200005c
:020000040000fa
:0402d800c802000058
:020000040000fa
:0402dc00c802000054
:020000040000fa
:0402e000c802000050
:020000040000fa
:0402e400c80200004c
:020000040000fa
:0402e800c802000048
:020000040000fa
:0402ec00c802000044
:020000040000fa
:0402f000c802000040
:020000040000fa
:0402f400c80200003c
:020000040000fa
:0402f800c802000038
:020000040000fa
:0402fc00c802000034
:020000040000fa
:04030000c80200002f
:020000040000fa
:04030400c80200002b
:020000040000fa
:04030800c802000027
:020000040000fa
:04030c00c802000023
:020000040000fa
:04031000c80200001f
:020000040000fa
:04031400c80200001b
:020000040000fa
:04031800c802000017
:020000040000fa
:04031c00c802000013
:020000040000fa
:04032000c80200000f
:020000040000fa
:04032400c80200000b
:020000040000fa
:04032800c802000007
:020000040000fa
:04032c00c802000003
:020000040000fa
:04033000c8020000ff
:020000040000fa
:04033400c8020000fb
:020000040000fa
:04033800c8020000f7
:020000040000fa
:04033c00c8020000f3
:020000040000fa
:04034000c8020000ef
:020000040000fa
:04034400c8020000eb
:020000040000fa
:04034800c8020000e7
:020000040000fa
:04034c00c8020000e3
:020000040000fa
:04035000c8020000df
:020000040000fa
:04035400c8020000db
:020000040000fa
:04035800c8020000d7
:020000040000fa
:04035c00c8020000d3
:020000040000fa
:04036000c8020000cf
:020000040000fa
:04036400c8020000cb
:020000040000fa
:04036800c8020000c7
:020000040000fa
:04036c00c8020000c3
:020000040000fa
:04037000c8020000bf
:020000040000fa
:04037400c8020000bb
:020000040000fa
:04037800c8020000b7
:020000040000fa
:04037c00c8020000b3
:020000040000fa
:04038000c8020000af
:020000040000fa
:04038400c8020000ab
:020000040000fa
:04038800c8020000a7
:020000040000fa
:04038c00c8020000a3
:020000040000fa
:04039000c80200009f
:020000040000fa
:04039400c80200009b
:020000040000fa
:04039800c802000097
:020000040000fa
:04039c00c802000093
:020000040000fa
:100400000f8020000e7f24000e01880000000000f5
:10041000000020000000e000020032000001200087
:1004200020028800140007005b0007000000e000c5
:1004300003003a0000002000010020000200370005
:100440000000200001002000810f70000100320038
:1004500014000700000020000000e000020032004d
:100460000000020000000000ce02020000000000b8
:100470000040da000000fe004440a9000000200017
:100480000000e0000300320000002000a00188000e
:100490004440a800000006008a1f78008b1f7800e7
:1004a0000000060091018800800478000000eb0045
:1004b0001a003700e284440032a0b4009905ba0063
:1004c000e284440032a0b4009906ba00e2844400f9
:1004d00032a0b4000006eb00476fde00fd07b2005b
:1004e000636ce10003003a00ebff07000000eb0043
:1004f0000a003700606ce10004003a00005deb0088
:100500008b05e900fdff3e00040037006168e10053
:10051000010032000086eb000b00070019c7ba008b
:100520001905ba000e04e00003003a000a00e000da
:10053000e0ff3a0000000600fe07b2009e018800be
:100540008a047800f5ff3700395dba008b05e900b1
:100550000c003200295dba008b05e900080032006a
:100560000c00e00003003a00e284440032a0b40032
:10057000f5ff370019ddba008b05e900faff3a00f4
:100580008904e800e184440032a0b40000000600c1
:0c0590000040da000000fe000000050042
:020000040000fa
:10059c000000fa00213a8000f0ff28000080600083
:1005ac00203a88004567a900e0ff2f0060198800f9
:1005bc0030002000501988001013280040168800c5
:1005cc00ca22ef00cc22ef00ce22ef00d022ef00a7
:1005dc00d222ef00d422ef00d622ef0060002000e0
:1005ec00c0168800da22ef00dc22ef00de22ef00da
:1005fc00e022ef00e222ef00e422ef00e622ef001f
:10060c000003200040178800ea22ef00ec22ef00e4
:10061c00ee22ef00f022ef00f222ef00f422ef00c6
:10062c00f622ef00113a8000f00b200000816000f0
:10063c00600420007105200023742000804978009c
:10064c0081497800824978007134800000fc2f00c9
:10065c00008060007001b300703488007134800039
:10066c00f00f2c00808060000080210001007000e1
:10067c00703488008134800000fc2f000080600002
:10068c000030a0008034880081348000f00f2c00f2
:10069c008080600000d02100010070008034880050
:1006ac00a136800000fc2f00008060002001b30008
:1006bc00a0368800c1368000f00f2c0080806000ce
:1006cc000030210001007000c036880041368000e7
:1006dc00f00f2c00808060000040210001007000b1
:1006ec00403688007136800000fc2f0000806000ce
:1006fc005001b30070368800103a80000001780079
:10070c000260a0006004200071052000237420000a
:10071c0080497800814978008249780041a1a8007d
:10072c00010a800000c0210001007000000a88004e
:10073c00010a8000f0f92f0000806000000a880098
:10074c00010a800080ff2f00008060003000b300a1
:10075c00000a88004301a90042e1a900110a8000a7
:10076c0000fe2f0000806000100a880049a1a8003c
:10077c00410a800000c0210001007000400a88007e
:10078c00410a8000f0f92f0000806000400a8800c8
:10079c00410a800080ff2f00008060003000b30011
:1007ac00400a88004b01a9004ae1a900510a8000c7
:1007bc0000fe2f0000806000500a880051a1a800a4
:1007cc00810a800000c0210001007000800a8800ae
:1007dc00810a8000f0f92f0000806000800a8800f8
:1007ec00810a800080ff2f00008060003000b30081
:1007fc00800a88005301a90052e1a900910a8000e7
:10080c0000fe2f0000806000900a880059a1a8000b
:10081c00c10a800000c0210001007000c00a8800dd
:10082c00c10a8000f0f92f0000806000c00a880027
:10083c00c10a800080ff2f00008060003000b300f0
:10084c00c00a88005b01a9005ae1a900d10a800006
:10085c0000fe2f0000806000d00a880091a1a80043
:10086c00810c800000c0210001007000800c880009
:10087c0090e1a9009061a900810c800080ff2f00fd
:10088c00008060006000b300800c880093e1a90038
:10089c0093c1a90093a1a9009381a9009301a90078
:1008ac0092e1a90092a1a900900c8000f001b30084
:1008bc00900c880020332000a00c8800a019200088
:1008cc00b00c88009ba1a800d10c800000c02100b6
:1008dc0001007000d00c88009ae1a9009a61a9006f
:1008ec00d10c800080ff2f00008060006000b300fe
:1008fc00d00c88009de1a9009dc1a9009da1a90073
:10090c009d81a9009d01a9009ce1a9009ca1a900c1
:10091c00e00c8000f001b300e00c880020332000d4
:10092c00f00c8800a0192000000d8800a5a1a800db
:10093c00210d800000c0210001007000200d8800f6
:10094c00a4e1a900a461a900210d800080ff2f0063
:10095c00008060006000b300200d8800a7e1a900b2
:10096c00a7c1a900a7a1a900a781a900a701a90057
:10097c00a6e1a900a6a1a900300d8000f001b300ea
:10098c00300d880020332000400d8800a019200075
:10099c00500d8800afa1a800710d800000c021008f
:1009ac0001007000700d8800aee1a900ae61a900d5
:1009bc00710d800080ff2f00008060006000b3008c
:1009cc00700d8800b1e1a900b1c1a900b1a1a900c5
:1009dc00b181a900b101a900b0e1a900b0a1a900a1
:1009ec00800d8000f001b300800d880020332000c2
:1009fc00900d8800a0192000a00d8800dce2a90051
:100a0c00cda2a900dcc2a900cd42a900010037008b
:100a1c0000000000511680000002200000806000e1
:100a2c000000e00018003a00d00320000100200074
:100a3c0076000700dce2a80040012000b00c880022
:100a4c0020048000620060000000e0001000320012
:100a5c00601680000000d1006140600000c0ea0018
:100a6c00614060000080fb006100600000004000fd
:100a7c00611680000110a100010070006016880052
:100a8c008420a90002003700a0192000b00c8800b7
:100a9c0050168000700060000000e00019003a0061
:100aac00d00320000100200058000700dce2a80061
:100abc0040012000500d88004104800000022000fd
:100acc00008060000000e000100032006016800022
:100adc004200de006140600000c0ea00614060003e
:100aec000080fb00610060004200dd0061168000a8
:100afc000120a100010070006016880088a0a900e8
:100b0c0002003700a0192000500d880051178000fa
:100b1c0000022000008060000000e00019003a0094
:100b2c00d00320000100200038000700dce2a80000
:100b3c0040012000000d88002104800000022000ec
:100b4c00008060000000e0001000320060178000a0
:100b5c004300de006140600000c0ea0061406000bc
:100b6c000080fb00610060004300dd006117800025
:100b7c000130a100010070006017880084a0a9005a
:100b8c0002003700a0192000000d880050178000cb
:100b9c00700060000000e00019003a00d003200053
:100bac000100200019000700dce2a8004001200031
:100bbc00a00d88004104800000042000008060002b
:100bcc000000e00092ff3200601780004200de005f
:100bdc006140600000c0ea00614060000080fb00e2
:100bec00610060004200dd00611780000120a1005f
:100bfc00010070006017880088c0a90085ff3700cd
:0c0c0c00a0192000a00d880082ff370016
:020000040000fa
:100c1800f03fb1000180b10006003500ee03090085
:100c280000000000403fb1000180b100fbff3d0023
:100c38001000b000203fb00002003500008009001d
:080c480000000000000006009e
:020000040000fa
:020000040001f9
:0457f400ffff0000b3
:020000040000fa
:020000040001f9
:0457f800bc7200007f
:020000040000fa
:020000040001f9
:0457fc007f3e0000ec
:00000001FF
